:100000000C9454000C9473000C9473000C947300C3
:100010000C9473000C9473000C9473000C94730094
:100020000C9473000C9473000C9473000C94730084
:100030000C9473000C9473000C9473000C94730074
:100040000C9473000C9473000C9473000C94730064
:100050000C9473000C9473000C9473000C94730054
:100060000C9473000C9473000C9473000C94730044
:100070000C9473000C9473000C9473000C94730034
:100080000C9473000C9473000C94730087018E0120
:100090009501B001B701BE01CC014C02FA014C023E
:1000A00010022D024C024C0211241FBECFEFD0E4EF
:1000B000DEBFCDBF11E0A0E0B1E0E6E9F9E000E08D
:1000C0000BBF02C007900D92AE32B107D9F721E005
:1000D000AEE2B1E001C01D92A733B207E1F70E9482
:1000E00009030C94C9040C940000CF93DF9300D053
:1000F0001F92CDB7DEB789837B836A8389818A307B
:1001000031F48A819B81BC018DE00E94750080ECF6
:1001100090E0FC018081882F90E080729927892BE4
:10012000B1F386EC90E02981FC01208380E090E02F
:100130000F900F900F90DF91CF9108950F931F9321
:10014000CF93DF9300D000D0CDB7DEB769837A8339
:100150008B839C8380912F0190913001A09131017C
:10016000B09132019C01AD0169817A818B819C81C2
:100170000E943503882309F477C020E030E0A9010C
:1001800069817A818B819C810E943503882351F497
:1001900081E990E021E930E0F90120812870FC013B
:1001A000208309C081E990E021E930E0F901208154
:1001B0002360FC01208328E539E344E75FE369819C
:1001C0007A818B819C810E943503882344F488E9DD
:1001D00090E02FEF3FEFFC013183208334C020E01B
:1001E00034E244EF56E469817A818B819C810E94DC
:1001F0005704181634F488E990E0FC01118210824B
:1002000022C008E910E020E030E040E053E46981DA
:100210007A818B819C810E945C04DC01CB019C0172
:10022000AD0160E074E284EF9AE40E943A03DC01DD
:10023000CB01BC01CD010E94AC03DC01CB010197D5
:10024000F8019183808384E990E0FC01118210829F
:1002500089819A81AB81BC8180932F019093300179
:10026000A0933101B093320100000F900F900F90D6
:100270000F90DF91CF911F910F910895CF93DF934E
:10028000CDB7DEB780E990E020E4FC01208381E96E
:1002900090E02BE0FC01208360E070E0CB010E9445
:1002A0009E000000DF91CF910895CF93DF93CDB7EB
:1002B000DEB780E990E0FC01108281E990E0FC016A
:1002C00010820000DF91CF910895CF93DF931F92AA
:1002D000CDB7DEB7198280E290E0FC018081809585
:1002E00089838091330190913401CC01A0E0B0E08A
:1002F00040E050E026E030E0841B950B28173907DA
:1003000008F458C08A5B9F4FFC010C942C0381E0D9
:1003100090E0909334018093330156C082E090E0E6
:1003200090933401809333014FC08981882F90E0EE
:1003300082709927892B31F084E090E0909334010A
:10034000809333018981882F90E084709927892BCD
:10035000B1F183E090E090933401809333012FC09A
:1003600085E090E090933401809333012DC086E0C6
:1003700090E0909334018093330126C08981882FC7
:1003800090E084709927892BE1F482E090E09093CB
:1003900034018093330115C08981882F90E08270E9
:1003A0009927892B81F482E090E090933401809327
:1003B000330109C0109234011092330105C00000CE
:1003C00003C0000001C0000080913301909134010E
:1003D000CC01A0E0B0E040E050E026E030E0841B3B
:1003E000950B2817390708F455C0835B9F4FFC0114
:1003F0000C942C0310922E0180912E01882F90E0F6
:10040000880F991F880F991F825F9E4FFC01808182
:100410009181A281B381BC01CD010E949E0041C0A7
:1004200080912E018730D1F180912E018F5F8093D2
:100430002E0180912E01882F90E0880F991F880F40
:10044000991F825F9E4FFC0180819181A281B381BF
:10045000BC01CD010E949E0021C080912E01882305
:10046000F9F080912E01815080932E0180912E0110
:10047000882F90E0880F991F880F991F825F9E4FE9
:10048000FC0180819181A281B381BC01CD010E94D8
:100490009E0006C0000005C0000003C0000001C0AF
:1004A000000000000F90DF91CF910895CF93DF936C
:1004B0001F92CDB7DEB7198280E290E0FC01808107
:1004C0008095898380913501909136018230910524
:1004D000F9F08330910528F4009761F0019789F0D5
:1004E0004FC08430910581F184309105F8F0059773
:1004F000C9F146C081E090E09093360180933501C8
:100500004BC082E090E0909336018093350144C067
:100510008981882F90E081709927892BB1F183E040
:1005200090E090933601809335012FC08981882F08
:1005300090E081709927892B51F584E090E09093A9
:1005400036018093350123C08981882F90E0817026
:100550009927892BF1F085E090E090933601809304
:10056000350117C08981882F90E081709927892BE8
:1005700091F482E090E090933601809335010BC0B6
:10058000109236011092350107C0000005C000002E
:1005900003C0000001C00000809135019091360138
:1005A0008230910551F18330910528F4009739F19B
:1005B000019739F129C08430910529F184309105E2
:1005C00018F00597B9F020C00E943E0180912E01DD
:1005D000882F90E0880F991F880F991F825F9E4F88
:1005E000FC0180819181A281B381BC01CD010E9477
:1005F0009E000AC00E94550107C0000005C000000F
:1006000003C0000001C0000000000F90DF91CF91F7
:100610000895CF93DF93CDB7DEB781E290E0FC0180
:10062000108282E290E02FEFFC01208384E290E0D0
:100630002FEFFC01208385E290E0FC0110821092F4
:1006400034011092330110923601109235010E944C
:1006500065010E945602FBCFEE0FFF1F0024001C15
:100660000BBE0790F691E02D09940E94E20308F476
:1006700081E008950E944E030C941D040E9416040C
:1006800058F00E940F0440F029F45F3F29F00C94C9
:10069000060451110C9451040C940C040E942E0475
:1006A00068F39923B1F3552391F3951B550BBB27A1
:1006B000AA2762177307840738F09F5F5F4F220FE6
:1006C000331F441FAA1FA9F335D00E2E3AF0E0E8DD
:1006D00032D091505040E695001CCAF72BD0FE2F27
:1006E00029D0660F771F881FBB1F261737074807BB
:1006F000AB07B0E809F0BB0B802DBF01FF27935873
:100700005F4F3AF09E3F510578F00C9406040C942C
:1007100051045F3FE4F3983ED4F38695779567954F
:10072000B795F7959F5FC9F7880F911D96958795A7
:1007300097F90895E1E0660F771F881FBB1F6217C6
:1007400073078407BA0720F0621B730B840BBA0B84
:10075000EE1F88F7E09508950E94B3036894B111E5
:100760000C94510408950E94360488F09F5798F025
:10077000B92F9927B751B0F0E1F0660F771F881FA6
:10078000991F1AF0BA95C9F714C0B13091F00E94C0
:100790005004B1E008950C945004672F782F8827F7
:1007A000B85F39F0B93FCCF3869577956795B395E7
:1007B000D9F73EF490958095709561957F4F8F4F56
:1007C0009F4F0895990F0008550FAA0BE0E8FEEF20
:1007D00016161706E807F907C0F012161306E40705
:1007E000F50798F0621B730B840B950B39F40A26FE
:1007F00061F0232B242B252B21F408950A2609F4DC
:10080000A140A6958FEF811D811D089597F99F67DF
:1008100080E870E060E008959FEF80EC0895002488
:100820000A941616170618060906089500240A9455
:1008300012161306140605060895092E0394000CDB
:1008400011F4882352F0BB0F40F4BF2B11F460FF6A
:1008500004C06F5F7F4F8F4F9F4F089557FD905893
:10086000440F551F59F05F3F71F04795880F97FB74
:10087000991F61F09F3F79F087950895121613062E
:100880001406551FF2CF4695F1DF08C0161617065D
:100890001806991FF1CF8695710561050894089592
:1008A000E894BB2766277727CB0197F908950E9424
:1008B000E20308F48FEF08950E946F040C941D0466
:1008C0000E940F0438F00E94160420F0952311F0C6
:1008D0000C9406040C940C0411240C9451040E94F2
:1008E0002E0470F3959FC1F3950F50E0551F629F42
:1008F000F001729FBB27F00DB11D639FAA27F00D79
:10090000B11DAA1F649F6627B00DA11D661F829F9F
:100910002227B00DA11D621F739FB00DA11D621F84
:10092000839FA00D611D221F749F3327A00D611DA1
:10093000231F849F600D211D822F762F6A2F112483
:100940009F5750409AF0F1F088234AF0EE0FFF1FB6
:10095000BB1F661F771F881F91505040A9F79E3F0D
:10096000510580F00C9406040C9451045F3FE4F3AD
:10097000983ED4F3869577956795B795F795E79563
:100980009F5FC1F7FE2B880F911D9695879597F96C
:060990000895F894FFCF6A
:100996000000000200000000750000000000A4D066
:1009A60082437BD49243A4D0A443719DAE430000FE
:0E09B600C4430000DC43A4F0F64300D002442A
:00000001FF
