:100000000C9446000C9465000C9465000C946500FB
:100010000C9465000C9465000C9465000C946500CC
:100020000C9465000C9465000C9465000C946500BC
:100030000C9465000C94DE000C9465000C94650033
:100040000C9465000C9465000C9465000C9465009C
:100050000C9465000C9465000C9465000C9465008C
:100060000C9465000C9465000C9465000C9465007C
:100070000C9465000C9465000C9465000C9465006C
:100080000C9465000C9465000C94650011241FBE4F
:10009000CFEFD0E4DEBFCDBF11E0A0E0B1E0EAEEEB
:1000A000FAE000E00BBF02C007900D92A234B10746
:1000B000D9F721E0A2E4B1E001C01D92A235B20758
:1000C000E1F70E94AB030C9473050C940000CF93EE
:1000D000DF9300D01F92CDB7DEB789837B836A831D
:1000E00089818A3031F48A819B81BC018DE00E9434
:1000F000670080EC90E0FC018081882F90E08072A6
:100100009927892BB1F386EC90E02981FC012083AB
:1001100080E090E00F900F900F90DF91CF910895C5
:10012000CF93DF93CDB7DEB781E890E02BE0FC0101
:10013000208388E890E02DE730E0FC0131832083C4
:100140008FE690E022E0FC01208384E890E0FC014F
:100150001182108280910E0190910F01A0911001E7
:10016000B09111018093430190934401A093450104
:10017000B09346018FE590E02FE530E0F901208152
:100180002068FC0120830000DF91CF910895CF9378
:10019000DF93CDB7DEB781E890E0FC01108200006C
:1001A000DF91CF910895CF93DF93CDB7DEB781E094
:1001B000809342010000DF91CF9108951F920F922A
:1001C00000905F000F92112400905B000F922F931C
:1001D0003F934F935F936F937F938F939F93AF93CF
:1001E000BF93EF93FF93CF93DF93CDB7DEB78091AB
:1001F000430190914401A0914501B09146010197BE
:10020000A109B1098093430190934401A093450152
:10021000B09346018091430190914401A091450122
:10022000B0914601892B8A2B8B2B91F40E94D3002D
:1002300080910E0190910F01A0911001B0911101D8
:100240008093430190934401A0934501B0934601EC
:100250000000DF91CF91FF91EF91BF91AF919F91FE
:100260008F917F916F915F914F913F912F910F905F
:1002700000925B000F9000925F000F901F90189506
:10028000CF93DF9300D000D0CDB7DEB769837A83F8
:100290008B839C8389819A81AB81BC8180930E0181
:1002A00090930F01A0931001B093110180910E0162
:1002B00090910F01A0911001B09111018093430121
:1002C00090934401A0934501B093460100000F9024
:1002D0000F900F900F90DF91CF9108950F931F9380
:1002E000CF93DF9300D000D0CDB7DEB769837A8398
:1002F0008B839C8380914A0190914B01A0914C018A
:10030000B0914D019C01AD0169817A818B819C8105
:100310000E94DF03882309F477C020E030E0A901C0
:1003200069817A818B819C810E94DF03882351F44B
:1003300081E990E021E930E0F90120812870FC0199
:10034000208309C081E990E021E930E0F9012081B2
:100350002360FC01208328E539E344E75FE36981FA
:100360007A818B819C810E94DF03882344F488E991
:1003700090E02FEF3FEFFC013183208334C020E079
:1003800034E244EF56E469817A818B819C810E943A
:100390000105181634F488E990E0FC0111821082FE
:1003A00022C008E910E020E030E040E053E4698139
:1003B0007A818B819C810E940605DC01CB019C0126
:1003C000AD0160E074E284EF9AE40E94E403DC0192
:1003D000CB01BC01CD010E945604DC01CB01019789
:1003E000F8019183808384E990E0FC0111821082FE
:1003F00089819A81AB81BC8180934A0190934B01A2
:10040000A0934C01B0934D0100000F900F900F90FE
:100410000F90DF91CF911F910F910895CF93DF93AC
:10042000CDB7DEB780E990E020E4FC01208381E9CC
:1004300090E02BE0FC01208360E070E0CB010E94A3
:100440006E010000DF91CF910895CF93DF93CDB778
:10045000DEB780E990E0FC01108281E990E0FC01C8
:1004600010820000DF91CF910895CF93DF931F9208
:10047000CDB7DEB7198280E290E0FC0180818095E3
:10048000898380914E0190914F018230910521F135
:100490008330910528F4009769F0019791F08FC09F
:1004A00084309105B1F18430910528F1059709F464
:1004B00060C085C081E090E090934F0180934E0131
:1004C00086C0109247011092480182E090E090931C
:1004D0004F0180934E017BC08981882F90E081700D
:1004E0009927892B09F470C084E090E090934F0124
:1004F00080934E0169C080914901813009F066C046
:100500001092490182E090E090934F0180934E0158
:100510005DC080914701863059F483E090E090936C
:100520004F0180934E0110924701109248014FC035
:1005300080914801282F30E080914701882F90E07A
:10054000880F991F865D9E4FFC018081918128173D
:1005500039074CF01092480185E090E090934F01EC
:1005600080934E0134C0809148018F5F8093480191
:100570002EC080914801282F30E080914701882FBC
:1005800090E0880F991F8A5C9E4FFC0180819181C9
:100590002817390774F01092480184E090E0909396
:1005A0004F0180934E01809147018F5F80934701F7
:1005B0000EC0809148018F5F8093480108C010925F
:1005C0004F0110924E0103C0000001C00000809155
:1005D0004E0190914F018230910559F18330910580
:1005E00028F4009741F1019741F12AC08430910528
:1005F00031F08430910518F10597A9F021C0809160
:100600004701882F90E0880F991F880F991F8E5EF1
:100610009E4FFC0180819181A281B381BC01CD01FB
:100620000E946E010DC060E070E0CB010E946E017F
:1006300007C0000005C0000003C0000001C00000AA
:1006400000000F90DF91CF910895CF93DF931F9219
:10065000CDB7DEB7198280E290E0FC018081809501
:100660008983809150019091510182309105E1F090
:100670008330910528F4009749F0019771F03EC04E
:1006800083309105F9F0049759F138C081E090E08A
:1006900090935101809350013BC082E090E0909391
:1006A00051018093500134C08981882F90E081707E
:1006B0009927892B41F183E090E090935101809339
:1006C000500121C08981882F90E081709927892B62
:1006D000E1F484E090E0909351018093500115C0C3
:1006E00080914701882399F482E090E09093510132
:1006F0008093500181E08093490109C0109251011B
:100700001092500105C0000003C0000001C00000AD
:1007100080915001909151018230910571F08330A8
:10072000910528F4009759F0019759F00FC08330D4
:10073000910549F0049749F009C0000007C0000086
:1007400005C0000003C0000001C0000000000F90C1
:10075000DF91CF910895CF93DF93CDB7DEB781E2DC
:1007600090E0FC01108282E290E02FEFFC012083F8
:1007700084E290E02FEFFC01208385E290E0FC0111
:10078000108264E670E080E090E00E9440010E94E8
:10079000900010924F0110924E0110925101109250
:1007A00050010E940E020E9435020E9425030000A3
:1007B000809142018823E1F310924201F4CF0E941C
:1007C0008C0408F481E008950E94F8030C94C70497
:1007D0000E94C00458F00E94B90440F029F45F3F21
:1007E00029F00C94B00451110C94FB040C94B60441
:1007F0000E94D80468F39923B1F3552391F3951B14
:10080000550BBB27AA2762177307840738F09F5F31
:100810005F4F220F331F441FAA1FA9F335D00E2E9E
:100820003AF0E0E832D091505040E695001CCAF70B
:100830002BD0FE2F29D0660F771F881FBB1F2617CE
:1008400037074807AB07B0E809F0BB0B802DBF01A5
:10085000FF2793585F4F3AF09E3F510578F00C9474
:10086000B0040C94FB045F3FE4F3983ED4F3869508
:1008700077956795B795F7959F5FC9F7880F911D95
:100880009695879597F90895E1E0660F771F881F81
:10089000BB1F621773078407BA0720F0621B730B34
:1008A000840BBA0BEE1F88F7E09508950E945D0453
:1008B0006894B1110C94FB0408950E94E00488F040
:1008C0009F5798F0B92F9927B751B0F0E1F0660F14
:1008D000771F881F991F1AF0BA95C9F714C0B13055
:1008E00091F00E94FA04B1E008950C94FA04672F85
:1008F000782F8827B85F39F0B93FCCF38695779584
:100900006795B395D9F73EF490958095709561956C
:100910007F4F8F4F9F4F0895990F0008550FAA0BD7
:10092000E0E8FEEF16161706E807F907C0F0121602
:100930001306E407F50798F0621B730B840B950B05
:1009400039F40A2661F0232B242B252B21F408955A
:100950000A2609F4A140A6958FEF811D811D0895F7
:1009600097F99F6780E870E060E008959FEF80EC62
:10097000089500240A941616170618060906089505
:1009800000240A9412161306140605060895092E6B
:100990000394000C11F4882352F0BB0F40F4BF2BDA
:1009A00011F460FF04C06F5F7F4F8F4F9F4F08951A
:1009B00057FD9058440F551F59F05F3F71F0479510
:1009C000880F97FB991F61F09F3F79F087950895F5
:1009D000121613061406551FF2CF4695F1DF08C014
:1009E000161617061806991FF1CF86957105610531
:1009F00008940895E894BB2766277727CB0197F9D9
:100A000008950E948C0408F48FEF08950E94190540
:100A10000C94C7040E94B90438F00E94C00420F06E
:100A2000952311F00C94B0040C94B60411240C948A
:100A3000FB040E94D80470F3959FC1F3950F50E01A
:100A4000551F629FF001729FBB27F00DB11D639F80
:100A5000AA27F00DB11DAA1F649F6627B00DA11D26
:100A6000661F829F2227B00DA11D621F739FB00DCC
:100A7000A11D621F839FA00D611D221F749F33273C
:100A8000A00D611D231F849F600D211D822F762FD5
:100A90006A2F11249F5750409AF0F1F088234AF0B2
:100AA000EE0FFF1FBB1F661F771F881F915050401E
:100AB000A9F79E3F510580F00C94B0040C94FB0400
:100AC0005F3FE4F3983ED4F3869577956795B795A5
:100AD000F795E7959F5FC1F7FE2B880F911D9695BF
:0A0AE000879597F90895F894FFCF69
:100AEA000000000200000000670000000000010092
:100AFA0000000000C443A4D0A4437BD49243719D58
:100B0A00AE4300D002440000DC430A0008000F0094
:100B1A00050008000F0001000100020001000300A7
:020B2A000500C4
:00000001FF
